:020000040000FA
:2030000020080020F130000017310000D530000000000000000000000000000000000000FA
:203020000000000000000000000000001B31000000000000000000001D3100009936000027
:203040002131000021310000213100002131000021310000213100002131000021310000E0
:20306000213100005D3900002131000021310000A9390000213100002131000021310000EC
:203080002131000021310000213100002131000021310000213100002131000021310000A0
:2030A000213100002131000021310000213100002131000021310000213100002131000080
:2030C0000348854600F09AF800480047414600002008002004207146084202D0EFF3098098
:2030E00001E0EFF308807146004A10477D3500000C480D4901600D4901600D4901600D4AAB
:203100000D4911600D4A0E491160002101600D4880470D480047FEE7FEE7FEE7FEE7FEE716
:20312000FEE700000001004059000000160000008800000024000040A55A0000800200404D
:2031400001000000BD370000C130000030B50B46014600202022012409E00D46D5409D4255
:2031600005D31D469540491B2546954040191546521E002DF1DC30BD03460B439B0703D084
:2031800009E008C9121F08C0042AFAD203E00B780370401C491C521EF9D27047F0B51FB47E
:2031A0000646002082B005464024019100901BE0019922460F46304600F042F8049A059B70
:2031C000801A994110D310461946224600F028F8361A8F410197224601200021009F00F07A
:2031E0001FF838184D4100902046641E0028DFDC019B00982946324607B0F0BD064C012588
:20320000064E05E0E36807CC2B430C3C98471034B442F7D3FFF758FF1048000030480000A1
:2032200010B5202A04DB0146203A9140002010BD914020239C1A0346E3401943904010BD12
:2032400010B5202A04DB0846203AD040002110BD0B46D340D0402024A21A914008431946EB
:2032600010BD00000EB509490EC900910192810F8A00029369468A58054951184A68C306FF
:20328000DB0E0120984002434A600EBD7C4700000002004002490A6802430A60704700006A
:2032A0000002004010B500F03FFA0148006810BD0000002010B500F037FA0148006810BDDC
:2032C0000000002002480068C00700D001487047000200400048E80104480068800702D500
:2032E0000120C00370470020704700000002004010B500F019FA0448406B41070348490F70
:203300000068C84010BD0000000200400000002010B500F009FA0448406B4006410F03487E
:203320000068C84010BD0000000200400000002008B511A000681149009009680020052276
:203340001204114216D1080301D50D4800E00D488A030FD40A04920F6B469B5CCA0589048F
:20336000D20DC90E891C8008921C59435043FFF7EDFE800008BD00000102020440020040DC
:20338000001BB7000048E801F3B5124881B005690F4610200F4C0540403C206804263043C3
:2033A0002060102000F050F82069072108432061206A000900013843206220698843019929
:2033C0000843206100F0B0F9002D02D12068B0432060FEBD40020040F0B5194B88B0F0CB54
:2033E000009401ACE0C478CB04AF78C7840A23061B0E0ED003039B0F9B0004ADEB58114D58
:203400005B19E5B28405E40EA5401C68AC4314431C60420E520710D08200920F92006B460C
:203420009A58084B103BD21803015B0FC001C00E8340106898430843106008B0F0BD0000DF
:203440005C4700002002004010B504460749084B05E00A46491E002A01DC002010BD1A69A2
:2034600020469043F5D1012010BD0000C03D2F00400200400248016849084900016070474C
:2034800000C0004070B50E4C236808252B432360E0606160A26001202061BFF36F8F206926
:2034A000C007FCD12068400608D5216805A000F02BFC2068402108432060FEE770BD0000C2
:2034C00000C0004049535043544C203A204953504646283078253258290D0A0002480168B9
:2034E000012211430160704700C0004005490022CA604860012008610869C007FCD188687C
:203500007047000000C0004004492E22CA6048600120086108690028FCD1704700C00040DE
:2035200010B501208007C16B0F2212069143C163C16B09010909C163054C01140122204656
:2035400000F008F80122D103204600F003F810BD40400040F0B5002301273C469C400C420A
:2035600008D005685C000326A640B5431646A640354305605B1C102BEFD3F0BD044603A076
:2035800000F0C2FB204601F06DF8FEE7496E2048617264204661756C742048616E646C65FF
:2035A000720A00000121890748607047012080074068704710B500F051F80420FFF76AFEF7
:2035C0001020FFF741FF00210720FFF7DDFE124C2046FFF747FE0321002209062046FFF7BC
:2035E000FBFE0E4C2046FFF73DFE0721002209032046FFF7F1FE01208007C16BFF22120435
:203600009143332252048918C16300F08DF804490020086010BD0000103D805F0300C05E02
:20362000000100400120800781680222114381607047012080078168012211438160704708
:203640000121020E890751188B680122824013438B608868904388607047000010B5592185
:203660000448162288230160026003600468002CF9D010BD0001004006498A691202FCD460
:203680000A2804D10D220A608A691202FCD40860704700000000074000B501F037F803492C
:2036A0000868401C00D1086000BD00001000002010B5114B00221A60014610480068FFF75E
:2036C00045FD0F49401E884201D901200CE00D4948610D480722C3691B021B0A4C042343A0
:2036E000C361002088610A61002803D007A000F00BFBFEE710BD0000100000200000002098
:20370000FFFFFF0000E000E004ED00E05365742073797374656D207469636B206572726F87
:203720007221210A00000000F8B51D4D28691C4944071CA000680090640F0020403109684A
:2037400005221204114216D1080301D5164800E016488A030FD40A04920F6B469B5CCA05DF
:203760008904D20DC90E891C8008921C59435043FFF7ECFC80000E4E022CB06002D00D49DC
:20378000A0000858296A0907090F491CFFF7DEFC094930604A108018FFF7D8FC7060F8BD16
:2037A0000002004001020204001BB7000048E801000000203C47000040420F0010B5592148
:2037C0000A48162388220160036002600468002CF9D007490B680722120593430B600B6876
:2037E00013430B600021016010BD00000001004000020040F8B51C4A0C4605469369D800B2
:20380000FCD5FFF72BFFFFF769FE184E0227002D02D0012D12D108E0012080F310880005A2
:20382000FFF772FE3068384307E0012080F310880020FFF769FE3068B8433060002C06D05A
:20384000012C0DD0022C01D1FFF7F3FEF8BDBFF34F8F08490648C860BFF34F8F00BFFDE738
:20386000FFF7E0FEF8BD00000000074000C000400400FA0500ED00E010B50A4C7D220121CC
:20388000D200C906204600F049F820682106084320600815044908602068890508432060C3
:2038A00010BD00002000054000E100E010B588B00446202215496846FFF75EFC144B144A73
:2038C00014482033944202D14069000A0BE09C4202D14069000B06E00F4940698C4201D106
:2038E000000C00E0000D4107490F022904D088006946085808B010BD944201D09C4202D1BC
:20390000FFF7F6FCF6E7FFF703FDF3E794470000000005400002004000100540F7B5174652
:203920000646FFF7C3FF054600244008B84201D8022008E039462846FFF708FC040E02D024
:20394000611CFFF703FC0199214331607060641C604301462846FFF7F9FBFEBD70B510489C
:203960008168C907C90F1AD00125856000F0D6FE0C4E70687D21C900FFF7E8FB34460C34D1
:20398000002902D120682843206070683221FFF7DDFB002903D1206802210843206070BD1F
:2039A000200005401000002010B50B4CE06911210902084202D104E000F06AF9A169490425
:2039C000FAD5A16920467122114203D00921890200F090F810BD00000000074010B51B4886
:2039E000FFF72EFE1A4CE1214902204600F0A2F81121204600F09AF80120164900030860FD
:203A0000FFF750FC014614A000F07EF9FFF752FC014618A000F078F9FFF754FC01461BA016
:203A200000F072F9FFF758FC01461EA000F06CF9FFF75EFC014621A000F066F9FFF768FC86
:203A4000014625A000F060F910BD0000100000040000074000E100E00D0A434C4B5F47652C
:203A60007443505546726571203A202538640D0A00000000434C4B5F47657448434C4B4649
:203A8000726571203A202538640D0A00434C4B5F47657448585446726571203A2025386476
:203AA0000D0A0000434C4B5F4765744C585446726571203A202538640D0A0000434C4B5F85
:203AC00047657450434C4B3046726571203A202538640D0A00000000434C4B5F47657450E3
:203AE000434C4B3146726571203A202538640D0A00000000CA0102D501221204C2614A058E
:203B000003D570228261082282610A0503D5426901231A4342618A0401D5034A82614904B4
:203B200001D51F21416470470100000142680A4342607047F0B587B00F46044600252E46AD
:203B4000182247496846FFF717FB46494648474A8C4204D14369006A5B015D0F1FE0444B28
:203B60009C4204D14369006A5B005D0F20E0944204D1C369006B5B015D0F2DE03D4B9C4238
:203B800006D1C369006B5B005D0F0006060F25E0394B9C4205D1C369006B5B035D0F000A2D
:203BA0001AE0364B9C4206D1C369006B5B025D0F0004060F12E0324B9C4205D1C369006BA2
:203BC0005B055D0F000C07E02E4B9C4206D1C369006B5B045D0F000D0607360F0020206394
:203BE0000320E060A068284B1840A060012D02D0042D04D013E0FFF79BFB01900FE08C42BD
:203C000007D0944205D01C48844202D01C48844202D1FFF76DFB01E0FFF77AFB0490002FBC
:203C20001BD0A90068464058711CFFF78FFA0546790840183946FFF789FA1449801E8842BD
:203C400007D9F90068183946FFF780FA0009801E02E0032109070843606207B0F0BD0000EE
:203C6000B4470000000007400002004000200740001007400030074000400740005007406D
:203C800000600740007007400FFFF0FFFFFF000010B512480068C4B27F2C03D910A000F0A7
:203CA00033F810BD214613A000F02EF85A2C09D004DC312C0BD0582CF3D103E0782C01D0C5
:203CC0007A2CEED1FFF7CAFCFFF7B3FC10BD0D48042201681143016010BD000000000740A4
:203CE000696E76616C696420636F6D6D616E640D0A0000007072657373203A2025630D0A81
:203D0000000000001C0000200FB410B503A9044B044A029800F018F810BC08BC04B0184759
:203D2000754500000C00002002E008C8121F08C1002AFAD170477047002001E001C1121F9A
:203D4000002AFBD170470000FFB591B00F460546002606E025280AD0149A139990476D1C34
:203D6000761C28780028F5D1304615B0F0BD002400940121F34A029400E004436D1C2B783B
:203D80000846203B98401042F7D128782A280ED0022128780246303A092A15D8009A0A235C
:203DA0005A43303A80180C436D1C0090F1E701CF0090002805DA01204003044300984042F8
:203DC0000090022004436D1C28782E2815D10420044368786D1C2A280AD101CF6D1C029099
:203DE0000BE002990A225143303940186D1C02902878014630390929F3D928786C2810D03F
:203E000006DC4C281AD068280ED06A2817D104E0742813D07A2812D110E0012040050443F5
:203E20000CE00121090501E0032109050C436978814203D10120000524186D1C6D1C287878
:203E400003906E281ED00CDC632831D004DC00288AD0582811D1B2E064287BD069280CD13C
:203E600078E073282DD004DC6F2870D0702804D1A7E075286CD078286BD0149A13999047C2
:203E8000761C62E06002400F022807D003280AD0042838680AD006603F1D56E03868F11751
:203EA00006604160F8E738680680F5E70670F3E73878694608740020487404A803900120B3
:203EC00003E0386803900020C0433F1D61070FD5002101E00199491C029A0191914213DA12
:203EE0008142F7DB019A0399895C0029F2D10BE0002101E00199491C01918142FADB019A74
:203F00000399895C0029F5D101990098139A401A00902146149B00F03BF90199801946189D
:203F200007E0039803990078491C0391149A139990470198401E0190401CF2D12146149B04
:203F4000139A009800F014F986196D1C09E741E033E034E00A200021049005916002410F98
:203F6000022905D001CFC2179446032905D007E0FF1DFF08FF0003CF06E000B2C217944697
:203F8000042902D140B2C1178C4600226146944506DA0A460021404291418C462D2102E03C
:203FA000210504D52B216A461176012103E0E10701D02021F7E7019154E00A200BE0102097
:203FC00009E01020049000210420044308200591029003E008200021059104906002410F50
:203FE000022905D001CF00229446032906D006E0FF1DFF08FF0003CF8C4603E080B2042905
:2040000000D1C0B20021019121072BD50399702906D0049A1021059B4A401A4305D00EE05E
:2040200040216A461176012108E06146014306D030216A4611760399517602210191049ADF
:204040000821059B4A401A430CD16146014301D1610707D530216A461176012101910299FB
:20406000491E02910399582904D037A103910FA90F910DE039A1F9E76146059B049AFFF70F
:204080008DF8039B8C469B5C0F9A521E0F92137061460143F0D10F9807A9081A20300390EF
:2040A000600704D5012000048443029801E0012002900399884201DD401A00E000204118AF
:2040C0000290019809180098401A0090E00306D42146149B139A009800F05AF886190020F9
:2040E000049008E006A9085C149A139990470498401C761C049001998842F3DBE0030CD5EC
:204100002146149B139A009800F042F8861904E0149A302013999047761C0299481E0290F1
:204120000029F5DC08E00F980F990078491C0F91149A13999047761C0399481E0390002950
:20414000F1DCFBE60928010030313233343536373839616263646566000000003031323357
:2041600034353637383941424344454600000000F8B5044600251E461746880404D405E03D
:2041800039462020B0476D1C641EF9D52846F8BDFFB50446002581B01E46C80301D53027BD
:2041A00000E02027880404D505E038460399B0476D1C641EF9D5284605B0F0BD10B5FFF719
:2041C000F5F90446012080074168394A11434160214638A0FFF798FDE00702D03BA0FFF78A
:2041E00093FDA00702D53EA0FFF78EFD600702D542A0FFF789FD200702D545A0FFF784FD5C
:20420000E00602D547A0FFF77FFDA00602D54AA0FFF77AFD600602D54DA0FFF775FD2006FC
:2042200002D54FA0FFF770FDE00502D551A0FFF76BFDE00704D00120FFF7B4F954A030E0C7
:20424000A00704D50220FFF7ADF956A029E0600704D50420FFF7A6F959A022E0200704D52D
:204260000820FFF79FF95DA01BE0E00604D51020FFF798F960A014E0A00604D52020FFF771
:2042800091F964A00DE0200604D58020FFF78AF968A006E0E00508D5FF200130FFF782F91A
:2042A0006BA0FFF731FD002010BD72A0F9E70000FF010000526573657420536F757263655C
:2042C000203C3078253038583E0D0A003029504F5220526573657420466C61670D0A000082
:2042E00031294E52455345542050696E20526573657420466C61670D0A0000003229574482
:204300005420526573657420466C61670D0A000033294C565220526573657420466C616768
:204320000D0A00003429424F4420526573657420466C61670D0A0000352953797374656D7D
:2043400020526573657420466C6167200D0A0000362952657365727665642E0D0A00000085
:20436000372943505520526573657420466C61670D0A00003829435055204C6F636B75704A
:2043800020526573657420466C61670D0A000000706F776572206F6E2066726F6D20504F8C
:2043A000520D0A00706F776572206F6E2066726F6D206E52455345542070696E0D0A000007
:2043C000706F776572206F6E2066726F6D205744542052657365740D0A000000706F7765DB
:2043E00072206F6E2066726F6D204C56522052657365740D0A000000706F776572206F6E02
:204400002066726F6D20424F442052657365740D0A000000706F776572206F6E2066726F08
:204420006D2053797374656D2052657365740D0A00000000706F776572206F6E2066726F9F
:204440006D204350552072657365740D0A000000706F776572206F6E2066726F6D204350DC
:2044600055204C6F636B75702052657365740D0A00000000706F776572206F6E2066726F8E
:204480006D20756E68616E646C6520726573657420736F757263650D0A00000070B50D46BD
:2044A00004460B460246194919A0FFF72DFC1D488169C900FCD5FFF7D1F81B484168042205
:2044C00011434160194908680922104308602046FFF70CF8034622460C4915A0FFF714FC0E
:2044E000E00504D1002221462220FEF7CBFF2A4621462120FEF7C6FF2046FEF7F7FF03460C
:204500002246024913A0FFF7FFFB70BD0148000025733A30782538582C30782538580D0A00
:2045200000000000000007400002004000C0004025733A30782538582C20726573756C74D8
:204540003A3078253858286265666F7265290D0A0000000025733A30782538582C20726597
:2045600073756C743A3078253858286166746572290D0A0010B50446FFF77EF8204610BDB4
:2045800010B51B4908680C460C342068C2070ED04008400020608A68501C8860154916A05F
:2045A000FFF7B2FB1948816B0122514081632068810702D5022188432060410717D50421C5
:2045C0008843206000211248FFF768FF11A0FFF79BFB02210120FFF70DF917480168082249
:2045E00091430160FEF746FF14490020086010BD10000020FC47000025732874696D657246
:2046000029203A202534640D0A00000040480040FCFF0100506572666F726D20525354204B
:20462000746F20656E74657220424F4F544C4F414445520D0A00000000C0004000010040F6
:20464000FEF7B8FFFEF76CFFFFF7C8F9FFF714F9FFF7B4FD7D20C000FFF72AF8FFF790FFF3
:20466000FCE7000010B50446016810A0FFF74CFB11A06168FFF748FB12A0A168FFF744FB4F
:2046800013A0E168FFF740FB14A02169FFF73CFB15A06169FFF738FB16A0A169FFF734FBF5
:2046A00017A0E169FFF730FB10BD0000723020203D20307825780A00723120203D20307895
:2046C00025780A00723220203D20307825780A00723320203D20307825780A00723132201D
:2046E0003D20307825780A006C7220203D20307825780A00706320203D20307825780A0085
:20470000707372203D20307825780A0002480168491C016070470000100000200548416822
:20472000491C41604168044A914201D300214160704700001000002060EA00000048E801B1
:204740000080000000D8B80500960000006CDC020000000000000000006CDC02000000001A
:2047600004000000080000000C000000000000000000000000000000100000000000000011
:2047800004000000080000000000000004000000080000000048E801008000000000000050
:2047A00000000000000000000096000000000000006CDC020048E801000000000080000068
:2047C000006CDC0200000000009600000048E8010000000000800000006CDC0200000000FE
:2047E000009600000048E8010000000000800000006CDC0200000000009600006C6F6F70D8
:204800000065726173655F636865636B73756D00304800000000002020000000283D0000B9
:20482000504800002000002000080000383D000000D8B8056000000000D8B8050000000099
:2048400000000000000000000000000000000000FFFFFFFFFFFFFFFFFFFFFFFFFFFFFFFF68
:20486000FFFFFFFFFFFFFFFFFFFFFFFFFFFFFFFFFFFFFFFFFFFFFFFFFFFFFFFFFFFFFFFF58
:20488000FFFFFFFFFFFFFFFFFFFFFFFFFFFFFFFFFFFFFFFFFFFFFFFFFFFFFFFFFFFFFFFF38
:2048A000FFFFFFFFFFFFFFFFFFFFFFFFFFFFFFFFFFFFFFFFFFFFFFFFFFFFFFFFFFFFFFFF18
:2048C000FFFFFFFFFFFFFFFFFFFFFFFFFFFFFFFFFFFFFFFFFFFFFFFFFFFFFFFFFFFFFFFFF8
:020000040001F9
:20FFE000FFFFFFFFFFFFFFFFFFFFFFFFFFFFFFFFFFFFFFFFFFFFFFFFFFFFFFFF23FC84A8D2
:00000001FF
